{
  "_format": "hh-sol-artifact-1",
  "contractName": "NewHealthDashboard",
  "sourceName": "contracts/NewHealthDashboard.sol",
  "abi": [
    {
      "inputs": [],
      "stateMutability": "nonpayable",
      "type": "constructor"
    },
    {
      "inputs": [],
      "name": "admin",
      "outputs": [
        {
          "internalType": "address",
          "name": "",
          "type": "address"
        }
      ],
      "stateMutability": "view",
      "type": "function"
    },
    {
      "inputs": [],
      "name": "anamnesisContract",
      "outputs": [
        {
          "internalType": "contract AnamnesisContract",
          "name": "",
          "type": "address"
        }
      ],
      "stateMutability": "view",
      "type": "function"
    },
    {
      "inputs": [
        {
          "internalType": "address",
          "name": "",
          "type": "address"
        }
      ],
      "name": "doctors",
      "outputs": [
        {
          "internalType": "string",
          "name": "name",
          "type": "string"
        },
        {
          "internalType": "string",
          "name": "crm",
          "type": "string"
        },
        {
          "internalType": "bool",
          "name": "verified",
          "type": "bool"
        }
      ],
      "stateMutability": "view",
      "type": "function"
    },
    {
      "inputs": [
        {
          "internalType": "address",
          "name": "patient",
          "type": "address"
        },
        {
          "internalType": "string",
          "name": "_conditions",
          "type": "string"
        },
        {
          "internalType": "string",
          "name": "_medications",
          "type": "string"
        },
        {
          "internalType": "string",
          "name": "_observations",
          "type": "string"
        },
        {
          "internalType": "string",
          "name": "_diagnosisName",
          "type": "string"
        },
        {
          "internalType": "string",
          "name": "_diagnosisId",
          "type": "string"
        }
      ],
      "name": "finishConsultation",
      "outputs": [
        {
          "internalType": "bool",
          "name": "",
          "type": "bool"
        }
      ],
      "stateMutability": "nonpayable",
      "type": "function"
    },
    {
      "inputs": [
        {
          "internalType": "address",
          "name": "_patient",
          "type": "address"
        }
      ],
      "name": "getAnamnesis",
      "outputs": [],
      "stateMutability": "view",
      "type": "function"
    },
    {
      "inputs": [
        {
          "internalType": "address",
          "name": "patient",
          "type": "address"
        }
      ],
      "name": "getUserMedicalRecordsDoctor",
      "outputs": [
        {
          "components": [
            {
              "internalType": "uint256",
              "name": "timestamp",
              "type": "uint256"
            },
            {
              "internalType": "string",
              "name": "conditions",
              "type": "string"
            },
            {
              "internalType": "string",
              "name": "medications",
              "type": "string"
            },
            {
              "internalType": "string",
              "name": "observations",
              "type": "string"
            },
            {
              "components": [
                {
                  "internalType": "string",
                  "name": "diagnosisName",
                  "type": "string"
                },
                {
                  "internalType": "string",
                  "name": "diagnosisId",
                  "type": "string"
                }
              ],
              "internalType": "struct NewHealthDashboard.Diagnosis",
              "name": "diagnosis",
              "type": "tuple"
            }
          ],
          "internalType": "struct NewHealthDashboard.MedicalConsultationData[]",
          "name": "",
          "type": "tuple[]"
        }
      ],
      "stateMutability": "view",
      "type": "function"
    },
    {
      "inputs": [],
      "name": "getUserMedicalRecordsPatient",
      "outputs": [
        {
          "components": [
            {
              "internalType": "uint256",
              "name": "timestamp",
              "type": "uint256"
            },
            {
              "internalType": "string",
              "name": "conditions",
              "type": "string"
            },
            {
              "internalType": "string",
              "name": "medications",
              "type": "string"
            },
            {
              "internalType": "string",
              "name": "observations",
              "type": "string"
            },
            {
              "components": [
                {
                  "internalType": "string",
                  "name": "diagnosisName",
                  "type": "string"
                },
                {
                  "internalType": "string",
                  "name": "diagnosisId",
                  "type": "string"
                }
              ],
              "internalType": "struct NewHealthDashboard.Diagnosis",
              "name": "diagnosis",
              "type": "tuple"
            }
          ],
          "internalType": "struct NewHealthDashboard.MedicalConsultationData[]",
          "name": "",
          "type": "tuple[]"
        }
      ],
      "stateMutability": "view",
      "type": "function"
    },
    {
      "inputs": [
        {
          "internalType": "address",
          "name": "",
          "type": "address"
        },
        {
          "internalType": "address",
          "name": "",
          "type": "address"
        }
      ],
      "name": "patientDoctorAuthorization",
      "outputs": [
        {
          "internalType": "bool",
          "name": "",
          "type": "bool"
        }
      ],
      "stateMutability": "view",
      "type": "function"
    },
    {
      "inputs": [
        {
          "internalType": "address",
          "name": "",
          "type": "address"
        }
      ],
      "name": "patientRegistered",
      "outputs": [
        {
          "internalType": "bool",
          "name": "",
          "type": "bool"
        }
      ],
      "stateMutability": "view",
      "type": "function"
    },
    {
      "inputs": [
        {
          "internalType": "string",
          "name": "_name",
          "type": "string"
        },
        {
          "internalType": "string",
          "name": "_crm",
          "type": "string"
        }
      ],
      "name": "registerDoctor",
      "outputs": [],
      "stateMutability": "nonpayable",
      "type": "function"
    },
    {
      "inputs": [],
      "name": "registerPatient",
      "outputs": [],
      "stateMutability": "nonpayable",
      "type": "function"
    },
    {
      "inputs": [
        {
          "internalType": "address",
          "name": "_patient",
          "type": "address"
        },
        {
          "internalType": "string",
          "name": "_familyHistory",
          "type": "string"
        },
        {
          "internalType": "string",
          "name": "_immunizationHistory",
          "type": "string"
        },
        {
          "internalType": "string",
          "name": "_surgicalHistory",
          "type": "string"
        },
        {
          "internalType": "string",
          "name": "_allergiesAndReactions",
          "type": "string"
        }
      ],
      "name": "setAnamnesis",
      "outputs": [],
      "stateMutability": "nonpayable",
      "type": "function"
    },
    {
      "inputs": [
        {
          "internalType": "address",
          "name": "doctor",
          "type": "address"
        }
      ],
      "name": "startConsultation",
      "outputs": [
        {
          "internalType": "bool",
          "name": "",
          "type": "bool"
        }
      ],
      "stateMutability": "nonpayable",
      "type": "function"
    },
    {
      "inputs": [
        {
          "internalType": "address",
          "name": "doctorAddress",
          "type": "address"
        }
      ],
      "name": "verifyDoctor",
      "outputs": [],
      "stateMutability": "nonpayable",
      "type": "function"
    }
  ],
  "bytecode": "0x60806040523480156200001157600080fd5b5033600560006101000a81548173ffffffffffffffffffffffffffffffffffffffff021916908373ffffffffffffffffffffffffffffffffffffffff1602179055506040516200006190620000c4565b604051809103906000f0801580156200007e573d6000803e3d6000fd5b506000806101000a81548173ffffffffffffffffffffffffffffffffffffffff021916908373ffffffffffffffffffffffffffffffffffffffff160217905550620000d2565b610ec2806200282b83390190565b61274980620000e26000396000f3fe608060405234801561001057600080fd5b50600436106100ea5760003560e01c8063a888803e1161008c578063cc7e0a1111610066578063cc7e0a111461025f578063d569cadb1461028f578063d80cb05c146102ab578063f851a440146102c7576100ea565b8063a888803e146101cd578063a9583c22146101fd578063bdb971711461022f576100ea565b8063822d3885116100c8578063822d38851461015b578063833b46bb1461016557806383663bfd1461018157806393a572251461019d576100ea565b806358e5d2db146100ef5780636095caba1461010d57806381966ace1461013d575b600080fd5b6100f76102e5565b604051610104919061171c565b60405180910390f35b61012760048036038101906101229190611789565b610309565b60405161013491906119f0565b60405180910390f35b61014561076a565b60405161015291906119f0565b60405180910390f35b610163610afe565b005b61017f600480360381019061017a9190611b47565b610beb565b005b61019b60048036038101906101969190611789565b610d37565b005b6101b760048036038101906101b29190611789565b610ea5565b6040516101c49190611bda565b60405180910390f35b6101e760048036038101906101e29190611789565b610fd8565b6040516101f49190611bda565b60405180910390f35b61021760048036038101906102129190611789565b610ff8565b60405161022693929190611c3f565b60405180910390f35b61024960048036038101906102449190611c84565b61113f565b6040516102569190611bda565b60405180910390f35b61027960048036038101906102749190611d9d565b6113e3565b6040516102869190611bda565b60405180910390f35b6102a960048036038101906102a49190611ddd565b611412565b005b6102c560048036038101906102c09190611789565b611589565b005b6102cf611677565b6040516102dc9190611ed7565b60405180910390f35b60008054906101000a900473ffffffffffffffffffffffffffffffffffffffff1681565b606081600460008273ffffffffffffffffffffffffffffffffffffffff1673ffffffffffffffffffffffffffffffffffffffff16815260200190815260200160002060003373ffffffffffffffffffffffffffffffffffffffff1673ffffffffffffffffffffffffffffffffffffffff16815260200190815260200160002060009054906101000a900460ff166103d5576040517f08c379a00000000000000000000000000000000000000000000000000000000081526004016103cc90611f64565b60405180910390fd5b600160008473ffffffffffffffffffffffffffffffffffffffff1673ffffffffffffffffffffffffffffffffffffffff168152602001908152602001600020805480602002602001604051908101604052809291908181526020016000905b8282101561075e57838290600052602060002090600602016040518060a00160405290816000820154815260200160018201805461047190611fb3565b80601f016020809104026020016040519081016040528092919081815260200182805461049d90611fb3565b80156104ea5780601f106104bf576101008083540402835291602001916104ea565b820191906000526020600020905b8154815290600101906020018083116104cd57829003601f168201915b5050505050815260200160028201805461050390611fb3565b80601f016020809104026020016040519081016040528092919081815260200182805461052f90611fb3565b801561057c5780601f106105515761010080835404028352916020019161057c565b820191906000526020600020905b81548152906001019060200180831161055f57829003601f168201915b5050505050815260200160038201805461059590611fb3565b80601f01602080910402602001604051908101604052809291908181526020018280546105c190611fb3565b801561060e5780601f106105e35761010080835404028352916020019161060e565b820191906000526020600020905b8154815290600101906020018083116105f157829003601f168201915b505050505081526020016004820160405180604001604052908160008201805461063790611fb3565b80601f016020809104026020016040519081016040528092919081815260200182805461066390611fb3565b80156106b05780601f10610685576101008083540402835291602001916106b0565b820191906000526020600020905b81548152906001019060200180831161069357829003601f168201915b505050505081526020016001820180546106c990611fb3565b80601f01602080910402602001604051908101604052809291908181526020018280546106f590611fb3565b80156107425780601f1061071757610100808354040283529160200191610742565b820191906000526020600020905b81548152906001019060200180831161072557829003601f168201915b5050505050815250508152505081526020019060010190610434565b50505050915050919050565b6060600160003373ffffffffffffffffffffffffffffffffffffffff1673ffffffffffffffffffffffffffffffffffffffff168152602001908152602001600020805480602002602001604051908101604052809291908181526020016000905b82821015610af557838290600052602060002090600602016040518060a00160405290816000820154815260200160018201805461080890611fb3565b80601f016020809104026020016040519081016040528092919081815260200182805461083490611fb3565b80156108815780601f1061085657610100808354040283529160200191610881565b820191906000526020600020905b81548152906001019060200180831161086457829003601f168201915b5050505050815260200160028201805461089a90611fb3565b80601f01602080910402602001604051908101604052809291908181526020018280546108c690611fb3565b80156109135780601f106108e857610100808354040283529160200191610913565b820191906000526020600020905b8154815290600101906020018083116108f657829003601f168201915b5050505050815260200160038201805461092c90611fb3565b80601f016020809104026020016040519081016040528092919081815260200182805461095890611fb3565b80156109a55780601f1061097a576101008083540402835291602001916109a5565b820191906000526020600020905b81548152906001019060200180831161098857829003601f168201915b50505050508152602001600482016040518060400160405290816000820180546109ce90611fb3565b80601f01602080910402602001604051908101604052809291908181526020018280546109fa90611fb3565b8015610a475780601f10610a1c57610100808354040283529160200191610a47565b820191906000526020600020905b815481529060010190602001808311610a2a57829003601f168201915b50505050508152602001600182018054610a6090611fb3565b80601f0160208091040260200160405190810160405280929190818152602001828054610a8c90611fb3565b8015610ad95780601f10610aae57610100808354040283529160200191610ad9565b820191906000526020600020905b815481529060010190602001808311610abc57829003601f168201915b50505050508152505081525050815260200190600101906107cb565b50505050905090565b60001515600260003373ffffffffffffffffffffffffffffffffffffffff1673ffffffffffffffffffffffffffffffffffffffff16815260200190815260200160002060009054906101000a900460ff16151514610b91576040517f08c379a0000000000000000000000000000000000000000000000000000000008152600401610b8890612056565b60405180910390fd5b6001600260003373ffffffffffffffffffffffffffffffffffffffff1673ffffffffffffffffffffffffffffffffffffffff16815260200190815260200160002060006101000a81548160ff021916908315150217905550565b60001515600360003373ffffffffffffffffffffffffffffffffffffffff1673ffffffffffffffffffffffffffffffffffffffff16815260200190815260200160002060020160009054906101000a900460ff16151514610c81576040517f08c379a0000000000000000000000000000000000000000000000000000000008152600401610c78906120e8565b60405180910390fd5b6000604051806060016040528084815260200183815260200160001515815250905080600360003373ffffffffffffffffffffffffffffffffffffffff1673ffffffffffffffffffffffffffffffffffffffff1681526020019081526020016000206000820151816000019081610cf891906122aa565b506020820151816001019081610d0e91906122aa565b5060408201518160020160006101000a81548160ff021916908315150217905550905050505050565b80600460008273ffffffffffffffffffffffffffffffffffffffff1673ffffffffffffffffffffffffffffffffffffffff16815260200190815260200160002060003373ffffffffffffffffffffffffffffffffffffffff1673ffffffffffffffffffffffffffffffffffffffff16815260200190815260200160002060009054906101000a900460ff16610e01576040517f08c379a0000000000000000000000000000000000000000000000000000000008152600401610df890611f64565b60405180910390fd5b60008054906101000a900473ffffffffffffffffffffffffffffffffffffffff1673ffffffffffffffffffffffffffffffffffffffff16639fcb4187836040518263ffffffff1660e01b8152600401610e5a9190611ed7565b600060405180830381865afa158015610e77573d6000803e3d6000fd5b505050506040513d6000823e3d601f19601f82011682018060405250810190610ea091906124de565b505050565b600060011515600260003373ffffffffffffffffffffffffffffffffffffffff1673ffffffffffffffffffffffffffffffffffffffff16815260200190815260200160002060009054906101000a900460ff16151514610f3a576040517f08c379a0000000000000000000000000000000000000000000000000000000008152600401610f3190612599565b60405180910390fd5b6001600460003373ffffffffffffffffffffffffffffffffffffffff1673ffffffffffffffffffffffffffffffffffffffff16815260200190815260200160002060008473ffffffffffffffffffffffffffffffffffffffff1673ffffffffffffffffffffffffffffffffffffffff16815260200190815260200160002060006101000a81548160ff02191690831515021790555060019050919050565b60026020528060005260406000206000915054906101000a900460ff1681565b600360205280600052604060002060009150905080600001805461101b90611fb3565b80601f016020809104026020016040519081016040528092919081815260200182805461104790611fb3565b80156110945780601f1061106957610100808354040283529160200191611094565b820191906000526020600020905b81548152906001019060200180831161107757829003601f168201915b5050505050908060010180546110a990611fb3565b80601f01602080910402602001604051908101604052809291908181526020018280546110d590611fb3565b80156111225780601f106110f757610100808354040283529160200191611122565b820191906000526020600020905b81548152906001019060200180831161110557829003601f168201915b5050505050908060020160009054906101000a900460ff16905083565b600086600460008273ffffffffffffffffffffffffffffffffffffffff1673ffffffffffffffffffffffffffffffffffffffff16815260200190815260200160002060003373ffffffffffffffffffffffffffffffffffffffff1673ffffffffffffffffffffffffffffffffffffffff16815260200190815260200160002060009054906101000a900460ff1661120b576040517f08c379a000000000000000000000000000000000000000000000000000000000815260040161120290611f64565b60405180910390fd5b6000604051806040016040528086815260200185815250905060006040518060a001604052804281526020018a8152602001898152602001888152602001838152509050600160008b73ffffffffffffffffffffffffffffffffffffffff1673ffffffffffffffffffffffffffffffffffffffff1681526020019081526020016000208190806001815401808255809150506001900390600052602060002090600602016000909190919091506000820151816000015560208201518160010190816112d791906122aa565b5060408201518160020190816112ed91906122aa565b50606082015181600301908161130391906122aa565b50608082015181600401600082015181600001908161132291906122aa565b50602082015181600101908161133891906122aa565b50505050506000600460008c73ffffffffffffffffffffffffffffffffffffffff1673ffffffffffffffffffffffffffffffffffffffff16815260200190815260200160002060003373ffffffffffffffffffffffffffffffffffffffff1673ffffffffffffffffffffffffffffffffffffffff16815260200190815260200160002060006101000a81548160ff021916908315150217905550600193505050509695505050505050565b60046020528160005260406000206020528060005260406000206000915091509054906101000a900460ff1681565b84600460008273ffffffffffffffffffffffffffffffffffffffff1673ffffffffffffffffffffffffffffffffffffffff16815260200190815260200160002060003373ffffffffffffffffffffffffffffffffffffffff1673ffffffffffffffffffffffffffffffffffffffff16815260200190815260200160002060009054906101000a900460ff166114dc576040517f08c379a00000000000000000000000000000000000000000000000000000000081526004016114d390611f64565b60405180910390fd5b60008054906101000a900473ffffffffffffffffffffffffffffffffffffffff1673ffffffffffffffffffffffffffffffffffffffff1663c30c5d2d87878787876040518663ffffffff1660e01b815260040161153d9594939291906125b9565b6020604051808303816000875af115801561155c573d6000803e3d6000fd5b505050506040513d601f19601f820116820180604052508101906115809190612654565b50505050505050565b600560009054906101000a900473ffffffffffffffffffffffffffffffffffffffff1673ffffffffffffffffffffffffffffffffffffffff163373ffffffffffffffffffffffffffffffffffffffff1614611619576040517f08c379a0000000000000000000000000000000000000000000000000000000008152600401611610906126f3565b60405180910390fd5b6001600360008373ffffffffffffffffffffffffffffffffffffffff1673ffffffffffffffffffffffffffffffffffffffff16815260200190815260200160002060020160006101000a81548160ff02191690831515021790555050565b600560009054906101000a900473ffffffffffffffffffffffffffffffffffffffff1681565b600073ffffffffffffffffffffffffffffffffffffffff82169050919050565b6000819050919050565b60006116e26116dd6116d88461169d565b6116bd565b61169d565b9050919050565b60006116f4826116c7565b9050919050565b6000611706826116e9565b9050919050565b611716816116fb565b82525050565b6000602082019050611731600083018461170d565b92915050565b6000604051905090565b600080fd5b600080fd5b60006117568261169d565b9050919050565b6117668161174b565b811461177157600080fd5b50565b6000813590506117838161175d565b92915050565b60006020828403121561179f5761179e611741565b5b60006117ad84828501611774565b91505092915050565b600081519050919050565b600082825260208201905092915050565b6000819050602082019050919050565b6000819050919050565b6117f5816117e2565b82525050565b600081519050919050565b600082825260208201905092915050565b60005b8381101561183557808201518184015260208101905061181a565b60008484015250505050565b6000601f19601f8301169050919050565b600061185d826117fb565b6118678185611806565b9350611877818560208601611817565b61188081611841565b840191505092915050565b600060408301600083015184820360008601526118a88282611852565b915050602083015184820360208601526118c28282611852565b9150508091505092915050565b600060a0830160008301516118e760008601826117ec565b50602083015184820360208601526118ff8282611852565b915050604083015184820360408601526119198282611852565b915050606083015184820360608601526119338282611852565b9150506080830151848203608086015261194d828261188b565b9150508091505092915050565b600061196683836118cf565b905092915050565b6000602082019050919050565b6000611986826117b6565b61199081856117c1565b9350836020820285016119a2856117d2565b8060005b858110156119de57848403895281516119bf858261195a565b94506119ca8361196e565b925060208a019950506001810190506119a6565b50829750879550505050505092915050565b60006020820190508181036000830152611a0a818461197b565b905092915050565b600080fd5b600080fd5b7f4e487b7100000000000000000000000000000000000000000000000000000000600052604160045260246000fd5b611a5482611841565b810181811067ffffffffffffffff82111715611a7357611a72611a1c565b5b80604052505050565b6000611a86611737565b9050611a928282611a4b565b919050565b600067ffffffffffffffff821115611ab257611ab1611a1c565b5b611abb82611841565b9050602081019050919050565b82818337600083830152505050565b6000611aea611ae584611a97565b611a7c565b905082815260208101848484011115611b0657611b05611a17565b5b611b11848285611ac8565b509392505050565b600082601f830112611b2e57611b2d611a12565b5b8135611b3e848260208601611ad7565b91505092915050565b60008060408385031215611b5e57611b5d611741565b5b600083013567ffffffffffffffff811115611b7c57611b7b611746565b5b611b8885828601611b19565b925050602083013567ffffffffffffffff811115611ba957611ba8611746565b5b611bb585828601611b19565b9150509250929050565b60008115159050919050565b611bd481611bbf565b82525050565b6000602082019050611bef6000830184611bcb565b92915050565b600082825260208201905092915050565b6000611c11826117fb565b611c1b8185611bf5565b9350611c2b818560208601611817565b611c3481611841565b840191505092915050565b60006060820190508181036000830152611c598186611c06565b90508181036020830152611c6d8185611c06565b9050611c7c6040830184611bcb565b949350505050565b60008060008060008060c08789031215611ca157611ca0611741565b5b6000611caf89828a01611774565b965050602087013567ffffffffffffffff811115611cd057611ccf611746565b5b611cdc89828a01611b19565b955050604087013567ffffffffffffffff811115611cfd57611cfc611746565b5b611d0989828a01611b19565b945050606087013567ffffffffffffffff811115611d2a57611d29611746565b5b611d3689828a01611b19565b935050608087013567ffffffffffffffff811115611d5757611d56611746565b5b611d6389828a01611b19565b92505060a087013567ffffffffffffffff811115611d8457611d83611746565b5b611d9089828a01611b19565b9150509295509295509295565b60008060408385031215611db457611db3611741565b5b6000611dc285828601611774565b9250506020611dd385828601611774565b9150509250929050565b600080600080600060a08688031215611df957611df8611741565b5b6000611e0788828901611774565b955050602086013567ffffffffffffffff811115611e2857611e27611746565b5b611e3488828901611b19565b945050604086013567ffffffffffffffff811115611e5557611e54611746565b5b611e6188828901611b19565b935050606086013567ffffffffffffffff811115611e8257611e81611746565b5b611e8e88828901611b19565b925050608086013567ffffffffffffffff811115611eaf57611eae611746565b5b611ebb88828901611b19565b9150509295509295909350565b611ed18161174b565b82525050565b6000602082019050611eec6000830184611ec8565b92915050565b7f4f6e6c7920617574686f72697a656420646f63746f727320666f72207468697360008201527f2070617469656e742063616e20706572666f726d207468697320616374696f6e602082015250565b6000611f4e604083611bf5565b9150611f5982611ef2565b604082019050919050565b60006020820190508181036000830152611f7d81611f41565b9050919050565b7f4e487b7100000000000000000000000000000000000000000000000000000000600052602260045260246000fd5b60006002820490506001821680611fcb57607f821691505b602082108103611fde57611fdd611f84565b5b50919050565b7f526567697374657265642070617469656e74732063616e206e6f74207065726660008201527f6f726d207468697320616374696f6e0000000000000000000000000000000000602082015250565b6000612040602f83611bf5565b915061204b82611fe4565b604082019050919050565b6000602082019050818103600083015261206f81612033565b9050919050565b7f566572696669656420646f63746f72732063616e206e6f7420706572666f726d60008201527f207468697320616374696f6e0000000000000000000000000000000000000000602082015250565b60006120d2602c83611bf5565b91506120dd82612076565b604082019050919050565b60006020820190508181036000830152612101816120c5565b9050919050565b60008190508160005260206000209050919050565b60006020601f8301049050919050565b600082821b905092915050565b60006008830261216a7fffffffffffffffffffffffffffffffffffffffffffffffffffffffffffffffff8261212d565b612174868361212d565b95508019841693508086168417925050509392505050565b60006121a76121a261219d846117e2565b6116bd565b6117e2565b9050919050565b6000819050919050565b6121c18361218c565b6121d56121cd826121ae565b84845461213a565b825550505050565b600090565b6121ea6121dd565b6121f58184846121b8565b505050565b5b818110156122195761220e6000826121e2565b6001810190506121fb565b5050565b601f82111561225e5761222f81612108565b6122388461211d565b81016020851015612247578190505b61225b6122538561211d565b8301826121fa565b50505b505050565b600082821c905092915050565b600061228160001984600802612263565b1980831691505092915050565b600061229a8383612270565b9150826002028217905092915050565b6122b3826117fb565b67ffffffffffffffff8111156122cc576122cb611a1c565b5b6122d68254611fb3565b6122e182828561221d565b600060209050601f8311600181146123145760008415612302578287015190505b61230c858261228e565b865550612374565b601f19841661232286612108565b60005b8281101561234a57848901518255600182019150602085019450602081019050612325565b868310156123675784890151612363601f891682612270565b8355505b6001600288020188555050505b505050505050565b600080fd5b600080fd5b600061239961239484611a97565b611a7c565b9050828152602081018484840111156123b5576123b4611a17565b5b6123c0848285611817565b509392505050565b600082601f8301126123dd576123dc611a12565b5b81516123ed848260208601612386565b91505092915050565b60006080828403121561240c5761240b61237c565b5b6124166080611a7c565b9050600082015167ffffffffffffffff81111561243657612435612381565b5b612442848285016123c8565b600083015250602082015167ffffffffffffffff81111561246657612465612381565b5b612472848285016123c8565b602083015250604082015167ffffffffffffffff81111561249657612495612381565b5b6124a2848285016123c8565b604083015250606082015167ffffffffffffffff8111156124c6576124c5612381565b5b6124d2848285016123c8565b60608301525092915050565b6000602082840312156124f4576124f3611741565b5b600082015167ffffffffffffffff81111561251257612511611746565b5b61251e848285016123f6565b91505092915050565b7f4f6e6c7920726567697374657265642070617469656e74732063616e2070657260008201527f666f726d207468697320616374696f6e00000000000000000000000000000000602082015250565b6000612583603083611bf5565b915061258e82612527565b604082019050919050565b600060208201905081810360008301526125b281612576565b9050919050565b600060a0820190506125ce6000830188611ec8565b81810360208301526125e08187611c06565b905081810360408301526125f48186611c06565b905081810360608301526126088185611c06565b9050818103608083015261261c8184611c06565b90509695505050505050565b61263181611bbf565b811461263c57600080fd5b50565b60008151905061264e81612628565b92915050565b60006020828403121561266a57612669611741565b5b60006126788482850161263f565b91505092915050565b7f4f6e6c792061646d696e2063616e20706572666f726d2074686973206163746960008201527f6f6e000000000000000000000000000000000000000000000000000000000000602082015250565b60006126dd602283611bf5565b91506126e882612681565b604082019050919050565b6000602082019050818103600083015261270c816126d0565b905091905056fea26469706673582212206dbc99b712bc882027361521a91bc4ddc9b57805f4b2f9e702efb0dd2d44cda364736f6c63430008120033608060405234801561001057600080fd5b50610ea2806100206000396000f3fe608060405234801561001057600080fd5b50600436106100415760003560e01c80639fcb418714610046578063c30c5d2d14610076578063d9118257146100a6575b600080fd5b610060600480360381019061005b919061072c565b6100d9565b60405161006d9190610861565b60405180910390f35b610090600480360381019061008b91906109b8565b610379565b60405161009d9190610abe565b60405180910390f35b6100c060048036038101906100bb919061072c565b610442565b6040516100d09493929190610b23565b60405180910390f35b6100e1610692565b6000808373ffffffffffffffffffffffffffffffffffffffff1673ffffffffffffffffffffffffffffffffffffffff16815260200190815260200160002060405180608001604052908160008201805461013a90610bb3565b80601f016020809104026020016040519081016040528092919081815260200182805461016690610bb3565b80156101b35780601f10610188576101008083540402835291602001916101b3565b820191906000526020600020905b81548152906001019060200180831161019657829003601f168201915b505050505081526020016001820180546101cc90610bb3565b80601f01602080910402602001604051908101604052809291908181526020018280546101f890610bb3565b80156102455780601f1061021a57610100808354040283529160200191610245565b820191906000526020600020905b81548152906001019060200180831161022857829003601f168201915b5050505050815260200160028201805461025e90610bb3565b80601f016020809104026020016040519081016040528092919081815260200182805461028a90610bb3565b80156102d75780601f106102ac576101008083540402835291602001916102d7565b820191906000526020600020905b8154815290600101906020018083116102ba57829003601f168201915b505050505081526020016003820180546102f090610bb3565b80601f016020809104026020016040519081016040528092919081815260200182805461031c90610bb3565b80156103695780601f1061033e57610100808354040283529160200191610369565b820191906000526020600020905b81548152906001019060200180831161034c57829003601f168201915b5050505050815250509050919050565b60006040518060800160405280868152602001858152602001848152602001838152506000808873ffffffffffffffffffffffffffffffffffffffff1673ffffffffffffffffffffffffffffffffffffffff16815260200190815260200160002060008201518160000190816103ef9190610d9a565b5060208201518160010190816104059190610d9a565b50604082015181600201908161041b9190610d9a565b5060608201518160030190816104319190610d9a565b509050506001905095945050505050565b600060205280600052604060002060009150905080600001805461046590610bb3565b80601f016020809104026020016040519081016040528092919081815260200182805461049190610bb3565b80156104de5780601f106104b3576101008083540402835291602001916104de565b820191906000526020600020905b8154815290600101906020018083116104c157829003601f168201915b5050505050908060010180546104f390610bb3565b80601f016020809104026020016040519081016040528092919081815260200182805461051f90610bb3565b801561056c5780601f106105415761010080835404028352916020019161056c565b820191906000526020600020905b81548152906001019060200180831161054f57829003601f168201915b50505050509080600201805461058190610bb3565b80601f01602080910402602001604051908101604052809291908181526020018280546105ad90610bb3565b80156105fa5780601f106105cf576101008083540402835291602001916105fa565b820191906000526020600020905b8154815290600101906020018083116105dd57829003601f168201915b50505050509080600301805461060f90610bb3565b80601f016020809104026020016040519081016040528092919081815260200182805461063b90610bb3565b80156106885780601f1061065d57610100808354040283529160200191610688565b820191906000526020600020905b81548152906001019060200180831161066b57829003601f168201915b5050505050905084565b6040518060800160405280606081526020016060815260200160608152602001606081525090565b6000604051905090565b600080fd5b600080fd5b600073ffffffffffffffffffffffffffffffffffffffff82169050919050565b60006106f9826106ce565b9050919050565b610709816106ee565b811461071457600080fd5b50565b60008135905061072681610700565b92915050565b600060208284031215610742576107416106c4565b5b600061075084828501610717565b91505092915050565b600081519050919050565b600082825260208201905092915050565b60005b83811015610793578082015181840152602081019050610778565b60008484015250505050565b6000601f19601f8301169050919050565b60006107bb82610759565b6107c58185610764565b93506107d5818560208601610775565b6107de8161079f565b840191505092915050565b6000608083016000830151848203600086015261080682826107b0565b9150506020830151848203602086015261082082826107b0565b9150506040830151848203604086015261083a82826107b0565b9150506060830151848203606086015261085482826107b0565b9150508091505092915050565b6000602082019050818103600083015261087b81846107e9565b905092915050565b600080fd5b600080fd5b7f4e487b7100000000000000000000000000000000000000000000000000000000600052604160045260246000fd5b6108c58261079f565b810181811067ffffffffffffffff821117156108e4576108e361088d565b5b80604052505050565b60006108f76106ba565b905061090382826108bc565b919050565b600067ffffffffffffffff8211156109235761092261088d565b5b61092c8261079f565b9050602081019050919050565b82818337600083830152505050565b600061095b61095684610908565b6108ed565b90508281526020810184848401111561097757610976610888565b5b610982848285610939565b509392505050565b600082601f83011261099f5761099e610883565b5b81356109af848260208601610948565b91505092915050565b600080600080600060a086880312156109d4576109d36106c4565b5b60006109e288828901610717565b955050602086013567ffffffffffffffff811115610a0357610a026106c9565b5b610a0f8882890161098a565b945050604086013567ffffffffffffffff811115610a3057610a2f6106c9565b5b610a3c8882890161098a565b935050606086013567ffffffffffffffff811115610a5d57610a5c6106c9565b5b610a698882890161098a565b925050608086013567ffffffffffffffff811115610a8a57610a896106c9565b5b610a968882890161098a565b9150509295509295909350565b60008115159050919050565b610ab881610aa3565b82525050565b6000602082019050610ad36000830184610aaf565b92915050565b600082825260208201905092915050565b6000610af582610759565b610aff8185610ad9565b9350610b0f818560208601610775565b610b188161079f565b840191505092915050565b60006080820190508181036000830152610b3d8187610aea565b90508181036020830152610b518186610aea565b90508181036040830152610b658185610aea565b90508181036060830152610b798184610aea565b905095945050505050565b7f4e487b7100000000000000000000000000000000000000000000000000000000600052602260045260246000fd5b60006002820490506001821680610bcb57607f821691505b602082108103610bde57610bdd610b84565b5b50919050565b60008190508160005260206000209050919050565b60006020601f8301049050919050565b600082821b905092915050565b600060088302610c467fffffffffffffffffffffffffffffffffffffffffffffffffffffffffffffffff82610c09565b610c508683610c09565b95508019841693508086168417925050509392505050565b6000819050919050565b6000819050919050565b6000610c97610c92610c8d84610c68565b610c72565b610c68565b9050919050565b6000819050919050565b610cb183610c7c565b610cc5610cbd82610c9e565b848454610c16565b825550505050565b600090565b610cda610ccd565b610ce5818484610ca8565b505050565b5b81811015610d0957610cfe600082610cd2565b600181019050610ceb565b5050565b601f821115610d4e57610d1f81610be4565b610d2884610bf9565b81016020851015610d37578190505b610d4b610d4385610bf9565b830182610cea565b50505b505050565b600082821c905092915050565b6000610d7160001984600802610d53565b1980831691505092915050565b6000610d8a8383610d60565b9150826002028217905092915050565b610da382610759565b67ffffffffffffffff811115610dbc57610dbb61088d565b5b610dc68254610bb3565b610dd1828285610d0d565b600060209050601f831160018114610e045760008415610df2578287015190505b610dfc8582610d7e565b865550610e64565b601f198416610e1286610be4565b60005b82811015610e3a57848901518255600182019150602085019450602081019050610e15565b86831015610e575784890151610e53601f891682610d60565b8355505b6001600288020188555050505b50505050505056fea2646970667358221220cc8825e703ebca7b072cc729baaaa87445c05fd87d8eb097b527161b2f41fce464736f6c63430008120033",
  "linkReferences": {},
  "deployedLinkReferences": {}
}